:100000000C942A000C9447000C9447000C94470071
:100010000C9447000C9447000C9447000C94470044
:100020000C9447000C9447000C9447000C94470034
:100030000C9447000C9447000C9447000C94470024
:100040000C9447000C9447000C9447000C94470014
:100050000C94470011241FBECFE5D8E0DEBFCDBF12
:1000600010E0A0E6B0E0E6EEF2E002C005900D92EE
:10007000A836B107D9F710E0A8E6B0E001C01D929C
:10008000AC36B107E1F70E9445010C9471010C9464
:100090000000BE9A8DB183648DB908958EB1882316
:1000A000E9F38FB10895AF9A80ED97E0FC013197A5
:1000B000F1F7AF980197F1F70895FF920F931F930F
:1000C000F82EAE9800ED17E0C8010197F1F782B362
:1000D0008F7082BB92B38F2D807F892B82BBC8012A
:1000E0000197F1F70E94530082B38F7082BB92B3E5
:1000F0008F2D8295807F892B82BBC8010197F1F7F4
:100100000E945300C8010197F1F781E0F81621F42D
:1001100010926900109268001F910F91FF9008954E
:1001200080E80E945D0080916800909169000196CE
:100130009093690080936800409781F480EC0E945E
:100140005D00109269001092680080916A009091A1
:100150006B00019690936B0080936A0080916A0017
:1001600090916B00029739F480E80E945D00109234
:100170006B0010926A0008950F931F938FEF81BB5D
:1001800012BA00ED17E0C8010197F1F7A69AAE98F0
:10019000C8010197F1F7A79AAF98C8010197F1F745
:1001A00081E00E945D00C8010197F1F788E20E949A
:1001B0005D00C8010197F1F782E00E945D00C8016F
:1001C0000197F1F78EE00E945D00C8010197F1F7F9
:1001D00086E00E945D00C8010197F1F71F910F9121
:1001E0000895FF920F931F93F82EAE9A00ED17E03B
:1001F000C8010197F1F782B38F7082BB92B38F2D44
:10020000807F892B82BBC8010197F1F70E945300C0
:10021000C8010197F1F782B38F7082BB82B3F29469
:1002200090EFF9228F2982BBC8010197F1F70E9454
:1002300053000E949000C8010197F1F71F910F91A0
:10024000FF900895CF93DF93EC0103C00E94F1006B
:10025000219688818823D1F7DF91CF910895DF938C
:10026000CF9300D0CDB7DEB790E8998390EC9A8316
:100270006150FE01E80FF11D8081860F0E945D0034
:100280000F900F90CF91DF910895EF92FF921F93FF
:10029000CF93DF930E9449000E94BC0080ED97E05D
:1002A0000197F1F780E690E00E94220180EDE82EB0
:1002B00087E0F82EC8ECD0E00E944E00182F82E0B4
:1002C00061E00E942F01C7010197F1F7812F0E9481
:1002D000F10088E893E1FE013197F1F70197D9F732
:0602E000EBCFF894FFCF04
:0802E60054656D70203D2000FD
:00000001FF
