:100000000C942A000C9434000C9434000C943400AA
:100010000C9434000C9434000C9434000C94340090
:100020000C9434000C9434000C9434000C94340080
:100030000C9434000C9434000C9434000C94340070
:100040000C9434000C9434000C9434000C94340060
:100050000C94340011241FBECFE5D8E0DEBFCDBF25
:100060000E9451000C94C8000C94000087B3806A71
:1000700087BBBE9883E58DB908958FB9779BFECF76
:1000800008951ABA379A86B1876086B9089587B9F4
:100090003E9A369A349BFECF349A24B135B1C901C9
:1000A00008950E9441000E94360080E00E944700AF
:1000B000A0E0B0E0BC01CD0124EF31E040E050E031
:1000C0000E946C002FEF33E040E050E00E948B0074
:1000D000822F0E943D00E9CF629FD001739FF00103
:1000E000829FE00DF11D649FE00DF11D929FF00DC8
:1000F000839FF00D749FF00D659FF00D9927729FFF
:10010000B00DE11DF91F639FB00DE11DF91FBD0189
:10011000CF011124089597FB092E05260ED057FD17
:1001200004D014D00AD0001C38F450954095309576
:1001300021953F4F4F4F5F4F0895F6F7909580956B
:10014000709561957F4F8F4F9F4F0895A1E21A2EB2
:10015000AA1BBB1BFD010DC0AA1FBB1FEE1FFF1F6B
:10016000A217B307E407F50720F0A21BB30BE40BBB
:10017000F50B661F771F881F991F1A9469F7609502
:100180007095809590959B01AC01BD01CF010895BC
:04019000F894FFCF11
:00000001FF
